:020000040800F2
:1000000000500020110F0008490D00084F0D000896
:10001000550D00085B0D0008610D00080000000090
:10002000000000000000000000000000615D00080A
:10003000670D000800000000415F0008895F0008AC
:10004000590F0008590F0008590F0008590F0008F0
:10005000590F0008590F0008590F0008590F0008E0
:10006000590F0008590F0008590F0008590F0008D0
:10007000590F0008590F0008590F0008590F0008C0
:10008000590F0008590F0008590F0008590F0008B0
:10009000590F0008590F0008590F0008590F0008A0
:1000A000590F0008750D0008590F0008590F000876
:1000B000890D0008590F0008590F0008590F000852
:1000C000590F0008590F0008590F0008590F000870
:1000D000590F00089D0D0008590F0008B10D0008C8
:1000E000590F0008590F0008590F000800000000C0
:1000F0000000000000000000000000000000000000
:0C01000000000000000000005FF808F1A3
:1001100010B5054C237833B9044B13B10448AFF341
:1001200000800123237010BD780000200000000033
:100130009CA6000808B5034B1BB103490348AFF365
:10014000008008BD000000007C0000209CA6000884
:10015000034613F8012B002AFBD1181A0138704707
:1001600080B485B000AFF860B9607A60FB68064A79
:100170001A60BB68054A1A607B6880221A6000BF5B
:100180001437BD4680BC7047940000204801002011
:10019000B0B5A4B000AF00F0E1FE00F0BDF800F093
:1001A00035FA00F0DFF900F013F900F04FF900F034
:1001B00003FA00F089F901224649474803F01DF986
:1001C00001224449454803F018F9454802F094FCDF
:1001D00000BF06F0B7F90346002BFAD100BF08F0C4
:1001E000E7F80346002BFAD143F6982000F0E8FE2A
:1001F00008F0C6F903F038FF03463A4A13603A4B59
:1002000007F180040FCB84E80F0007F18003002181
:10021000184603F001FF0346344A1360344B07F1DC
:1002200070040FCB84E80F0007F17003002118461B
:1002300003F0F2FE03462F4A13602F4B07F15404DC
:100240001D460FCD0FC495E8070084E8070007F1AD
:1002500054030021184603F093FE0346274A136017
:10026000274B07F138041D460FCD0FC495E8070052
:1002700084E8070007F138030021184603F080FEE8
:100280000346204A1360204B07F11C041D460FCD86
:100290000FC495E8070084E8070007F11C0300215C
:1002A000184603F06DFE0346184A1360184B3C468F
:1002B0001D460FCD0FC495E8070084E807003B46B4
:1002C0000021184603F05CFE0346124A136003F057
:1002D00050FEFEE79414002064110020AC100020B2
:1002E000AC1100205C110020D8A60008601100208D
:1002F000E8A60008F4110020F8A60008A8100020C5
:1003000014A700082411002030A70008281100209D
:100310004CA70008F811002080B594B000AF07F199
:10032000280328220021184609F0CAF807F114030F
:1003300000221A605A609A60DA601A613B1D00223E
:100340001A605A609A60DA600123BB624FF480330E
:10035000FB6200233B630123BB6302237B644FF4F6
:100360008033BB644FF4E013FB6407F128031846A5
:1003700001F0C8FD0346002B01D000F02FFB0F2336
:100380007B610223BB610023FB614FF480633B620E
:1003900000237B6207F114030221184602F032F8B1
:1003A0000346002B01D000F019FB02237B604FF4C1
:1003B0004043FB603B1D184602F0E2F90346002B68
:1003C00001D000F00BFB00BF5037BD4680BD0000E0
:1003D00080B584B000AF3B1D00221A605A609A605D
:1003E000184B194A1A60174B00229A60154B0022CD
:1003F0001A73144B00221A75124B4FF46022DA6103
:10040000104B00225A600F4B01221A610D4800F078
:10041000FBFD0346002B01D000F0E0FA04237B60D3
:100420000123BB600023FB603B1D1946054801F01A
:1004300083F80346002B01D000F0D0FA00BF10373C
:10044000BD4680BD2C1100200024014080B584B041
:1004500000AF3B1D00221A605A609A60184B194A7F
:100460001A60174B00229A60154B00221A73144B26
:1004700000221A75124B4FF46022DA61104B0022F1
:100480005A600F4B01221A610D4800F0BDFD034672
:10049000002B01D000F0A2FA05237B600123BB6092
:1004A0000023FB603B1D1946054801F045F8034653
:1004B000002B01D000F092FA00BF1037BD4680BD7E
:1004C000F41000200028014080B586B000AF07F18D
:1004D000080300221A605A609A60DA603B460022E4
:1004E0001A605A601E4B4FF080421A601C4B41F656
:1004F0001F425A601A4B00229A60194B40F2E732B1
:10050000DA60174B00221A61154B00229A611448D9
:1005100002F0A2FA0346002B01D000F05FFA4FF47C
:100520008053BB6007F1080319460D4802F03EFCFA
:100530000346002B01D000F051FA00233B6000235A
:100540007B603B461946064802F014FE0346002B2A
:1005500001D000F043FA00BF1837BD4680BD00BF90
:10056000AC11002080B500AF114B124A1A60104B3D
:100570004FF4E1325A600E4B00229A600C4B00227D
:10058000DA600B4B00221A61094B0C225A61084BAE
:1005900000229A61064B0022DA61054802F05AFEF9
:1005A0000346002B01D000F019FA00BF80BD00BF48
:1005B000641100200038014080B500AF114B124A91
:1005C0001A60104B4FF4E1325A600E4B00229A60D1
:1005D0000C4B0022DA600B4B00221A61094B0C22F3
:1005E0005A61084B00229A61064B0022DA610548E5
:1005F00002F030FE0346002B01D000F0EFF900BFFF
:1006000080BD00BFAC1000200048004080B588B01D
:1006100000AF07F1100300221A605A609A60DA6096
:10062000234B9B69224A43F010039361204B9B6943
:1006300003F01003FB60FB681D4B9B691C4A43F0F1
:10064000200393611A4B9B6903F02003BB60BB68D6
:10065000174B9B69164A43F004039361144B9B6943
:1006600003F004037B607B68114B9B69104A43F0E5
:10067000080393610E4B9B6903F008033B603B68E2
:10068000012205210B4801F024FC05233B610123D5
:100690007B610023BB610323FB6107F11003194653
:1006A000044801F07BFA00BF2037BD4680BD00BF83
:1006B00000100240000C014080B582B000AF7860AD
:1006C0000121084801F0EEFB0346C3F10103DBB250
:1006D0001A460121034801F0FCFB40F6B83004F053
:1006E000D3FCEDE7000C014080B584B000AF78602A
:1006F0000023FB8105F064FE0346FB810E4B186866
:1007000007F10E010023002204F02EF80346002B0F
:1007100006D1094B1B680021184603F0E9FE09E0E9
:10072000064B1B680121184603F086FD41F2883014
:1007300004F0AAFCDEE700BFF41100205C110020E9
:1007400080B584B000AF78600023BB8107F10C0353
:10075000184608F0BEFC184B186807F10C0100237E
:10076000002204F001F80346002B06D1124B1B684F
:100770000021184603F0BCFE1CE00F4B186807F17F
:100780000C03591C0023002203F0EEFF0346002B4C
:1007900006D1094B1B680021184603F0A9FE09E0A9
:1007A000064B1B680221184603F046FD41F28830D3
:1007B00004F06AFCCAE700BF601100205C11002051
:1007C000B0B5A2B008AF78600023A7F85C30002372
:1007D000A7F85A300023A7F86630322004F054FC02
:1007E0004E4B18684FF0FF33009301230122032181
:1007F00003F054FC38664A4B1B6807F15C01002289
:10080000184604F0AFF8464B186807F15C03013353
:100810000022194604F0A6F8424B1B6807F15A0162
:100820000022184604F09EF8B7F866305A1CA7F864
:100830006620052B27D93C4B00221A8007F0A0FE2A
:1008400014E03A493A4808F0C3FCB7F8663001337F
:10085000A7F86630B7F86630142B02D90023A7F842
:10086000663007F08DFE304B00221A80314B1B881A
:10087000314A1946314808F008FA03460D2BE0D1F9
:100880000023A7F86630B7F85A301A4697F85C305C
:10089000194697F85D3007F1180000930B46284978
:1008A00008F04EFF07F118031846FFF751FC034606
:1008B00087F85F300023FB6000233B6100237B61EE
:1008C000204BFB601B4B1B881D4697F85F3006933F
:1008D00007F11803059302AC07F10C0393E8070036
:1008E00084E80700002301930023009300230022E3
:1008F0002946124808F039FA034687F85F3097F81E
:100900005F309AB24FF47A730C490F4802F0F2FC50
:1009100041F2883004F0B8FB62E700BF5C110020B0
:1009200060110020F41100209C10002068A700082E
:1009300064110020100000209D8E0008CC120020C1
:1009400078A70008A4A70008AC10002080B582B0EA
:1009500000AF78607B681B681C4A934201D100F0AD
:1009600013FB7B681A4A93422CD11A4B1B88C3F3A2
:100970000E03194A0021D154164B1B886FEA4343DA
:100980006FEA53439AB2134B1A80114B1B686FF0F6
:1009900001021A610E4B1B681A6A41F211131340CF
:1009A000002B0FD10A4B1B681A6A40F244431340D4
:1009B000002B07D1064B1B681A68054B1B6822F0F9
:1009C00001021A6000BF0837BD4680BD002C0140FF
:1009D000AC1100209C1000209814002080B400AFBF
:1009E00072B600BFFEE7000080B584B000AF184BC0
:1009F0009B69174A43F001039361154B9B6903F010
:100A00000103BB60BB68124BDB69114A43F08053A2
:100A1000D3610F4BDB6903F080537B607B6800225E
:100A20000F216FF0010000F0DCFF0A4B5B68FB60F8
:100A3000FB6823F0E063FB60FB6843F00073FB603E
:100A4000044AFB68536000BF1037BD4680BD00BF3D
:100A5000001002400000014080B58AB000AF78600D
:100A600007F1180300221A605A609A60DA607B6806
:100A70001B68284A934222D1274B9B69264A43F49C
:100A800000739361244B9B6903F400737B617B6962
:100A9000214B9B69204A43F0040393611E4B9B69E1
:100AA00003F004033B613B691023BB610323FB613B
:100AB00007F118031946194801F070F826E07B6821
:100AC0001B68174A934221D1134B9B69124A43F486
:100AD00080639361104B9B6903F48063FB60FB6848
:100AE0000D4B9B690C4A43F0040393610A4B9B69CD
:100AF00003F00403BB60BB682023BB610323FB61DD
:100B000007F118031946054801F048F800BF2837D7
:100B1000BD4680BD00240140001002400008014095
:100B20000028014080B584B000AF78607B681B6806
:100B3000B3F1804F13D10C4BDB690B4A43F0010337
:100B4000D361094BDB6903F00103FB60FB68002202
:100B500005211C2000F045FF1C2000F05EFF00BFB7
:100B60001037BD4680BD00BF0010024080B58AB07E
:100B700000AF786007F1180300221A605A609A608B
:100B8000DA607B681B68404A93423AD13F4B9B69CD
:100B90003E4A43F4804393613C4B9B6903F480439A
:100BA0007B617B69394B9B69384A43F0040393614D
:100BB000364B9B6903F004033B613B694FF40073C0
:100BC000BB610223FB6103237B6207F11803194613
:100BD0002F4800F0E3FF4FF48063BB610023FB610B
:100BE00000233B6207F118031946294800F0D6FF9D
:100BF00000220521252000F0F4FE252000F00DFF45
:100C00003EE07B681B68234A934239D11F4BDB6966
:100C10001E4A43F48023D3611C4BDB6903F4802319
:100C2000FB60FB68194B9B69184A43F0080393610A
:100C3000164B9B6903F00803BB60BB684FF48063ED
:100C4000BB610223FB6103237B6207F11803194692
:100C5000114800F0A3FF4FF40063BB610023FB6168
:100C600000233B6207F1180319460B4800F096FF7A
:100C700000220521272000F0B4FE272000F0CDFE41
:100C800000BF2837BD4680BD00380140001002403B
:100C90000008014000480040000C014080B58CB0C5
:100CA00000AF78600023FB620023BB6200227968FA
:100CB000192000F096FE192000F0AFFE1E4B9B6934
:100CC0001D4A43F4006393611B4B9B6903F400636B
:100CD000FB60FB6807F1100207F114031146184688
:100CE00001F000FD01F0EAFCF862FB6A134AA2FB86
:100CF00003239B0C013BBB62114B124A1A60104B41
:100D000040F2E732DA600E4ABB6A53600C4B0022B5
:100D10001A610B4B00229A60094801F09DFE0346C0
:100D2000002B04D1064801F0E7FE034600E0012352
:100D300018463037BD4680BD0010024083DE1B439D
:100D4000FC110020002C014080B400AFFEE780B40D
:100D500000AFFEE780B400AFFEE780B400AFFEE76F
:100D600080B400AFFEE780B400AF00BFBD4680BCDA
:100D70007047000080B500AF024801F00FFF00BFD0
:100D800080BD00BFFC11002080B500AF024801F01B
:100D900005FF00BF80BD00BFAC11002080B500AFD3
:100DA000024802F04FFB00BF80BD00BF641100206D
:100DB00080B500AF024802F045FB00BF80BD00BF18
:100DC000AC10002080B586B000AFF860B9607A60E2
:100DD00000237B610AE0AFF300800146BB685A1C28
:100DE000BA60CAB21A707B6901337B617A697B6829
:100DF0009A42F0DB7B6818461837BD4680BD80B547
:100E000086B000AFF860B9607A6000237B6109E0CA
:100E1000BB685A1CBA601B781846AFF300807B6928
:100E200001337B617A697B689A42F1DB7B68184603
:100E30001837BD4680BD80B483B000AF78604FF0F6
:100E4000FF3318460C37BD4680BC704780B483B072
:100E500000AF786039603B684FF400525A6000235D
:100E600018460C37BD4680BC704780B483B000AFD5
:100E70007860012318460C37BD4680BC704780B4AB
:100E800085B000AFF860B9607A6000231846143767
:100E9000BD4680BC7047000080B586B000AF78606A
:100EA000144A154BD31A7B617B693B61134B1B685A
:100EB000002B02D1114B124A1A60104B1A687B6842
:100EC00013443A699A4207D208F0B8F903460C2253
:100ED0001A604FF0FF3309E0084B1B68FB60074BBB
:100EE0001A687B681344054A1360FB681846183774
:100EF000BD4680BD005000200004000048030020D3
:100F00007015002080B400AF00BFBD4680BC7047A4
:100F1000FFF7F8FF0B480C490C4A002302E0D458B5
:100F2000C4500433C4188C42F9D3094A094C002335
:100F300001E013600432A242FBD308F07BFAFFF712
:100F400027F97047000000207800002094AC0008CA
:100F50007800002070150020FEE7000080B500AF8B
:100F6000084B1B68074A43F010031360032000F08E
:100F70002DFD0F20FFF792FEFFF736FD00231846E8
:100F800080BD00BF0020024080B400AF054B1B783D
:100F90001A46054B1B681344034A136000BFBD4645
:100FA00080BC7047080000204412002080B400AFCD
:100FB000024B1B681846BD4680BC70474412002097
:100FC00080B584B000AF7860FFF7F0FFB8607B6851
:100FD000FB60FB68B3F1FF3F05D00A4B1B781A4654
:100FE000FB681344FB6000BFFFF7E0FF0246BB68ED
:100FF000D31AFA689A42F7D800BF00BF1037BD462F
:1010000080BD00BF0800002080B586B000AF7860CA
:101010000023FB7500233B610023BB600023FB60C2
:101020007B68002B01D10123BEE07B689B68002B0D
:101030007B689B6A002B09D17B680022DA627B689F
:10104000002283F824207868FFF706FD786800F016
:10105000D1FB0346FB757B689B6A03F01003002BF2
:1010600040F09980FB7D002B40F095807B689B6A67
:1010700023F4885323F0020343F002027B689A6250
:101080007B685A687B68DB691A437B681B7B5B0063
:101090001343BA681343BB607B689B68B3F5807FDA
:1010A00003D07B689B68012B02D14FF4807300E072
:1010B00000233A6913433B617B681B7D012B19D1E7
:1010C0007B681B7B002B09D17B689B69013B5A0322
:1010D0003B69134343F400633B610BE07B689B6A0D
:1010E00043F020027B689A627B68DB6A43F001026E
:1010F0007B68DA627B681B685B6823F469417B6804
:101100001B683A690A435A607B681B689A68284BD7
:1011100013407A681268B9680B4393607B689B68D8
:10112000B3F5807F03D07B689B68012B04D17B687B
:101130001B69013B1B05FB607B681B68DB6A23F4B2
:1011400070017B681B68FA680A43DA627B681B6877
:101150009A68184B1340BA689A420BD17B680022F8
:10116000DA627B689B6A23F0030343F001027B6829
:101170009A6218E07B689B6A23F0120343F0100226
:101180007B689A627B68DB6A43F001027B68DA6203
:101190000123FB7507E07B689B6A43F010027B68C4
:1011A0009A620123FB75FB7D18461837BD4680BD4A
:1011B000FDF7E1FFFE0E1FFF80B584B000AF786041
:1011C0000023FB737B6893F82430012B01D10223A9
:1011D00098E07B68012283F82420786800F0B0FA58
:1011E0000346FB73FB7B002B40F087807B689B6A88
:1011F00023F4407323F0010343F480727B689A6206
:101200007B681B68414A934205D1414B5B6803F4FC
:101210007023002B15D17B689B6A23F480127B68B6
:101220009A627B681B685B6803F48063002B26D09E
:101230007B689B6A23F4405343F480527B689A6234
:101240001DE07B689B6A43F480127B689A627B682E
:101250001B682F4A934204D07B681B682B4A934239
:101260000DD12B4B5B6803F48063002B07D07B68A8
:101270009B6A23F4405343F480527B689A627B68F4
:101280009B6A03F48053002B06D07B68DB6A23F053
:1012900006027B68DA6202E07B680022DA627B6821
:1012A000002283F824207B681B686FF002021A601A
:1012B0007B681B689B6803F46023B3F5602F13D130
:1012C0007B681B68114A934205D1114B5B6803F49C
:1012D0007023002B08D17B681B689A687B681B68A9
:1012E00042F4A0029A600CE07B681B689A687B68F5
:1012F0001B6842F480129A6003E07B68002283F846
:101300002420FB7B18461037BD4680BD00280140D5
:101310000024014090B587B000AF786039600023A9
:101320007B610023FB6000233B61FFF73FFE786198
:101330007B681B689B6803F48073002B0BD07B6871
:101340009B6A43F020027B689A627B68002283F8E4
:1013500024200123D3E07B681B685B6803F480735F
:10136000002B31D17B681B68DB6A03F47003002B10
:101370002AD121E03B68B3F1FF3F1DD03B68002B31
:1013800007D0FFF713FE02467B69D31A3A689A42E8
:1013900012D27B681B681B6803F00203002B0BD181
:1013A0007B689B6A43F004027B689A627B68002238
:1013B00083F824200323A2E07B681B681B6803F0EA
:1013C0000203002BD6D070E04F4B1C68022001F0C6
:1013D0008DFA0346B4FBF3F27B681B6819694B4B2B
:1013E0000B40002B18D17B681B68D968484B0B4019
:1013F000002B11D17B681B681969464B0B40002BF1
:1014000008D17B681B68D968434B0B40002B01D186
:10141000142320E029231EE07B681B6819693D4BDB
:101420000B40002B06D17B681B68D9683A4B0B40F8
:10143000002B0DD07B681B681969384B0B40002BC3
:1014400008D17B681B68D968344B0B40002B01D155
:10145000542300E0FC2302FB03F33B6121E03B68E3
:10146000B3F1FF3F1AD03B68002B07D0FFF79EFD7A
:1014700002467B69D31A3A689A420FD2FB683A69EE
:101480009A420BD97B689B6A43F004027B689A629C
:101490007B68002283F82420032330E0FB680133BB
:1014A000FB60FB683A699A42D9D87B681B686FF089
:1014B00012021A607B689B6A43F400727B689A622E
:1014C0007B681B689B6803F46023B3F5602F15D11C
:1014D0007B681B7B002B11D17B689B6A23F4807295
:1014E0007B689A627B689B6A03F48053002B05D16A
:1014F0007B689B6A43F001027B689A62002318466E
:101500001C37BD4690BD00BF000000202449922436
:1015100024499200922449129224490049922400BD
:1015200080B483B000AF78607B681B68DB6C1846C2
:101530000C37BD4680BC704780B485B000AF786082
:1015400039600023FB730023BB607B6893F8243071
:10155000012B01D10223DCE07B68012283F82420E7
:101560003B685B68062B1CD87B681B68596B3B6823
:101570005A6813469B001344053B1F2202FA03F3EB
:10158000DB4319403B6818683B685A6813469B0068
:101590001344053B00FA03F27B681B680A435A6355
:1015A0003CE03B685B680C2B1CD87B681B68196BA4
:1015B0003B685A6813469B001344233B1F2202FAE0
:1015C00003F3DB4319403B6818683B685A681346CD
:1015D0009B001344233B00FA03F27B681B680A4319
:1015E0001A631BE07B681B68D96A3B685A6813461C
:1015F0009B001344413B1F2202FA03F3DB431940D3
:101600003B6818683B685A6813469B001344413B8B
:1016100000FA03F27B681B680A43DA623B681B68C6
:10162000092B1CD97B681B68D9683B681A6813466C
:101630005B0013441E3B072202FA03F3DB4319400D
:101640003B6898683B681A6813465B0013441E3B6E
:1016500000FA03F27B681B680A43DA6019E07B68D2
:101660001B6819693B681A6813465B00134407221C
:1016700002FA03F3DB4319403B6898683B681A6839
:1016800013465B00134400FA03F27B681B680A43AD
:101690001A613B681B68102B03D03B681B68112B39
:1016A00032D17B681B681D4A934225D17B681B6839
:1016B0009B6803F40003002B26D17B681B689A68A3
:1016C0007B681B6842F400029A603B681B68102B21
:1016D0001AD1134B1B68134AA2FB03239A0C13461F
:1016E0009B0013445B00BB6002E0BB68013BBB6036
:1016F000BB68002BF9D107E07B689B6A43F02002AE
:101700007B689A620123FB737B68002283F82420A4
:10171000FB7B18461437BD4680BC7047002401404F
:101720000000002083DE1B4380B483B000AF7860EC
:101730007B689B6A18460C37BD4680BC704700002A
:1017400080B584B000AF78600023FB600023BB60ED
:101750007B681B689B6803F00103012B40D07B680A
:101760001B689A687B681B6842F001029A601F4BF5
:101770001B681F4AA2FB03239B0CBB6002E0BB68F3
:10178000013BBB60BB68002BF9D1FFF70FFCF86091
:101790001FE0FFF70BFC0246FB68D31A022B18D997
:1017A0007B681B689B6803F00103012B11D07B68E9
:1017B0009B6A43F010027B689A627B68DB6A43F0A5
:1017C00001027B68DA627B68002283F8242001230F
:1017D00007E07B681B689B6803F00103012BD8D1ED
:1017E000002318461037BD4680BD00BF0000002012
:1017F00083DE1B4380B584B000AF78600023FB60BC
:101800007B681B689B6803F00103012B2ED17B686A
:101810001B689A687B681B6822F001029A60FFF7D8
:10182000C5FBF8601BE0FFF7C1FB0246FB68D31A5B
:10183000022B14D97B681B689B6803F00103012B02
:101840000DD17B689B6A43F010027B689A627B68CB
:10185000DB6A43F001027B68DA62012307E07B6800
:101860001B689B6803F00103012BDCD000231846A2
:101870001037BD4680BD000080B485B000AF7860F1
:101880007B6803F00703FB600C4BDB68BB60BA6846
:101890004FF6FF031340BB60FB681A02BB6813439B
:1018A00043F0BF6343F40033BB60044ABB68D360BA
:1018B00000BF1437BD4680BC704700BF00ED00E09C
:1018C00080B400AF044BDB681B0A03F00703184623
:1018D000BD4680BC704700BF00ED00E080B483B01F
:1018E00000AF0346FB7197F90730002B0BDBFB7948
:1018F00003F01F02064997F907305B09012000FA3F
:1019000002F241F8232000BF0C37BD4680BC70476F
:1019100000E100E080B483B000AF03463960FB71A2
:1019200097F90730002B0ADB3B68DAB20C4997F9CC
:1019300007301201D2B20B4483F800230AE03B685F
:10194000DAB20849FB7903F00F03043B1201D2B26B
:101950000B441A7600BF0C37BD4680BC704700BFF1
:1019600000E100E000ED00E080B489B000AFF86075
:10197000B9607A60FB6803F00703FB61FB69C3F1A0
:101980000703042B28BF0423BB61FB690433062B28
:1019900002D9FB69033B00E000237B614FF0FF327B
:1019A000BB6902FA03F3DA43BB681A407B699A40C9
:1019B0004FF0FF317B6901FA03F3D9437B680B4099
:1019C000134318462437BD4680BC704780B582B0AB
:1019D00000AF78607868FFF74FFF00BF0837BD465B
:1019E00080BD80B586B000AF0346B9607A60FB73F6
:1019F00000237B61FFF764FF78617A68B9687869D2
:101A0000FFF7B2FF024697F90F3011461846FFF76D
:101A100081FF00BF1837BD4680BD80B582B000AFE2
:101A20000346FB7197F907301846FFF757FF00BFD1
:101A30000837BD4680BD80B485B000AF7860002314
:101A4000FB737B6893F82130DBB2022B08D07B68F4
:101A500004229A637B68002283F82020012320E07F
:101A60007B681B681A687B681B6822F00E021A608C
:101A70007B681B681A687B681B6822F001021A6089
:101A80007B681A6C7B68DB6B012101FA02F25A60F9
:101A90007B68012283F821207B68002283F82020C4
:101AA000FB7B18461437BD4680BC704780B584B0B8
:101AB00000AF78600023FB737B6893F82130DBB2C2
:101AC000022B05D07B6804229A630123FB7351E04B
:101AD0007B681B681A687B681B6822F00E021A601C
:101AE0007B681B681A687B681B6822F001021A6019
:101AF0007B681B68224A934229D07B681B68214A75
:101B0000934222D07B681B681F4A93421AD07B689D
:101B10001B681E4A934212D07B681B681C4A934282
:101B20000AD07B681B681B4A934202D14FF4801392
:101B30000EE04FF080730BE04FF4803308E04FF479
:101B4000805305E04FF4807302E0102300E001238E
:101B5000114A53607B68012283F821207B680022B0
:101B600083F820207B685B6B002B03D07B685B6B6A
:101B700078689847FB7B18461037BD4680BD00BF8C
:101B8000080002401C0002403000024044000240B5
:101B9000580002406C0002400000024080B48BB04C
:101BA00000AF7860396000237B6200233B6269E10B
:101BB00001227B6A02FA03F3FB613B681B68FA6946
:101BC0001340BB61BA69FB699A4240F058813B6897
:101BD0005B689A4A93425ED0984A934275D8984A75
:101BE000934258D0964A93426FD8964A934252D025
:101BF000944A934269D8944A93424CD0924A934271
:101C000063D8924A934246D0904A93425DD8122BB1
:101C10002AD8122B59D801A252F823F0971C000899
:101C2000711C0008831C0008C51C0008CB1C0008A0
:101C3000CB1C0008CB1C0008CB1C0008CB1C0008E8
:101C4000CB1C0008CB1C0008CB1C0008CB1C0008D8
:101C5000CB1C0008CB1C0008CB1C0008CB1C0008C8
:101C6000791C00088D1C0008794A934213D02CE09F
:101C70003B68DB683B6229E03B68DB6804333B621E
:101C800024E03B68DB6808333B621FE03B68DB68AD
:101C90000C333B621AE03B689B68002B02D10423A3
:101CA0003B6213E03B689B68012B05D108233B6234
:101CB0007B68FA691A6109E008233B627B68FA696C
:101CC0005A6103E000233B6200E000BFBB69FF2BC9
:101CD00001D87B6801E07B6804337B61BB69FF2B23
:101CE00002D87B6A9B0002E07B6A083B9B003B6159
:101CF0007B691A680F213B6901FA03F3DB431A4041
:101D0000396A3B6901FA03F31A437B691A603B683D
:101D10005B6803F08053002B00F0B1804D4B9B6952
:101D20004C4A43F0010393614A4B9B6903F0010362
:101D3000BB60BB68484A7B6A9B08023352F8233079
:101D4000FB607B6A03F003039B000F2202FA03F39C
:101D5000DB43FA681340FB607B68404A934213D030
:101D60007B683F4A93420DD07B683E4A934207D03E
:101D70007B683D4A934201D1032306E0042304E03B
:101D8000022302E0012300E000237A6A02F003024A
:101D900092009340FA681343FB602F497B6A9B08CB
:101DA0000233FA6841F823203B685B6803F4801330
:101DB000002B06D02D4B9A682C49BB6913438B60CE
:101DC00006E02A4B9A68BB69DB43284913408B60C5
:101DD0003B685B6803F40013002B06D0234BDA68E2
:101DE0002249BB691343CB6006E0204BDA68BB692C
:101DF000DB431E491340CB603B685B6803F4003350
:101E0000002B06D0194B5A681849BB6913434B6025
:101E100006E0164B5A68BB69DB43144913404B601C
:101E20003B685B6803F48033002B21D00F4B1A68AA
:101E30000E49BB6913430B6021E000BF0000321064
:101E400000003110000022100000211000001210CC
:101E50000000111000100240000001400008014085
:101E6000000C01400010014000140140000401403A
:101E70000B4B1A68BB69DB43094913400B607B6A53
:101E800001337B623B681A687B6A22FA03F3002BFA
:101E90007FF48EAE00BF00BF2C37BD4680BC7047BC
:101EA0000004014080B485B000AF78600B467B80B1
:101EB0007B689A687B881340002B02D00123FB7358
:101EC00001E00023FB73FB7B18461437BD4680BC42
:101ED000704780B483B000AF78600B467B801346B8
:101EE0007B707B78002B03D07A887B681A6103E0D3
:101EF0007B881A047B681A6100BF0C37BD4680BC22
:101F00007047000080B586B000AF78607B68002B1A
:101F100001D101236CE27B681B6803F00103002BF5
:101F200000F08780924B5B6803F00C03042B0CD00D
:101F30008F4B5B6803F00C03082B12D18C4B5B6852
:101F400003F48033B3F5803F0BD1894B1B6803F456
:101F50000033002B6CD07B685B68002B68D10123B9
:101F600046E27B685B68B3F5803F06D1804B1B6817
:101F70007F4A43F4803313602EE07B685B68002B5C
:101F80000CD17B4B1B687A4A23F480331360784B67
:101F90001B68774A23F4802313601DE07B685B682D
:101FA000B3F5A02F0CD1724B1B68714A43F4802308
:101FB00013606F4B1B686E4A43F4803313600BE071
:101FC0006B4B1B686A4A23F480331360684B1B68B1
:101FD000674A23F4802313607B685B68002B13D06F
:101FE000FEF7E4FF386108E0FEF7E0FF02463B69D8
:101FF000D31A642B01D90323FAE15D4B1B6803F468
:102000000033002BF0D014E0FEF7D0FF386108E079
:10201000FEF7CCFF02463B69D31A642B01D9032398
:10202000E6E1534B1B6803F40033002BF0D100E0D2
:1020300000BF7B681B6803F00203002B63D04C4B8E
:102040005B6803F00C03002B0BD0494B5B6803F07B
:102050000C03082B1CD1464B5B6803F48033002B28
:1020600016D1434B1B6803F00203002B05D07B689D
:102070001B69012B01D00123BAE13D4B1B6823F002
:10208000F8027B685B69DB00394913430B603AE077
:102090007B681B69002B20D0364B01221A60FEF7AB
:1020A00085FF386108E0FEF781FF02463B69D31ADD
:1020B000022B01D903239BE12D4B1B6803F0020384
:1020C000002BF0D02A4B1B6823F0F8027B685B6979
:1020D000DB00274913430B6015E0264B00221A60F2
:1020E000FEF764FF386108E0FEF760FF02463B69D7
:1020F000D31A022B01D903237AE11D4B1B6803F08D
:102100000203002BF0D17B681B6803F00803002B4F
:102110003AD07B689B69002B19D0174B01221A60BB
:10212000FEF744FF386108E0FEF740FF02463B69D6
:10213000D31A022B01D903235AE10D4B5B6A03F03A
:102140000203002BF0D0012000F0FCFA1CE00A4B47
:1021500000221A60FEF72AFF38610FE0FEF726FF23
:1021600002463B69D31A022B08D9032340E100BF82
:102170000010024000004242800442429E4B5B6AD3
:1021800003F00203002BE9D17B681B6803F0040312
:10219000002B00F0A6800023FB75974BDB6903F052
:1021A0008053002B0DD1944BDB69934A43F080534D
:1021B000D361914BDB6903F08053BB60BB680123A3
:1021C000FB758E4B1B6803F48073002B18D18B4B6F
:1021D0001B688A4A43F480731360FEF7E7FE386198
:1021E00008E0FEF7E3FE02463B69D31A642B01D9EF
:1021F0000323FDE0814B1B6803F48073002BF0D0B8
:102200007B68DB68012B06D17B4B1B6A7A4A43F063
:10221000010313622DE07B68DB68002B0CD1764B49
:102220001B6A754A23F001031362734B1B6A724ADF
:1022300023F0040313621CE07B68DB68052B0CD1E0
:102240006D4B1B6A6C4A43F0040313626A4B1B6AB2
:10225000694A43F0010313620BE0674B1B6A664A4D
:1022600023F001031362644B1B6A634A23F00403E7
:1022700013627B68DB68002B15D0FEF797FE386190
:102280000AE0FEF793FE02463B69D31A41F2883218
:10229000934201D90323ABE0574B1B6A03F00203BF
:1022A000002BEED014E0FEF781FE38610AE0FEF765
:1022B0007DFE02463B69D31A41F28832934201D92E
:1022C000032395E04C4B1B6A03F00203002BEED175
:1022D000FB7D012B05D1484BDB69474A23F0805336
:1022E000D3617B68DB69002B00F08180424B5B6827
:1022F00003F00C03082B61D07B68DB69022B46D10D
:102300003F4B00221A60FEF751FE386108E0FEF7ED
:102310004DFE02463B69D31A022B01D9032367E025
:10232000354B1B6803F00073002BF0D17B681B6AF0
:10233000B3F5803F08D1304B5B6823F400327B68F3
:102340009B682D4913434B602B4B5B6823F474123D
:102350007B68196A7B685B6A0B43274913434B60B0
:10236000274B01221A60FEF721FE386108E0FEF7D4
:102370001DFE02463B69D31A022B01D9032337E025
:102380001D4B1B6803F00073002BF0D02FE01C4B9B
:1023900000221A60FEF70AFE386108E0FEF706FE2A
:1023A00002463B69D31A022B01D9032320E0124BCA
:1023B0001B6803F00073002BF0D118E07B68DB6929
:1023C000012B01D1012313E00B4B5B68FB60FB6821
:1023D00003F480327B681B6A9A4206D1FB6803F4DF
:1023E00070127B685B6A9A4201D0012300E00023EF
:1023F00018461837BD4680BD0010024000700040EE
:102400006000424280B584B000AF786039607B687C
:10241000002B01D10123D0E06A4B1B6803F00703B6
:102420003A689A4210D9674B1B6823F00702654946
:102430003B6813430B60634B1B6803F007033A6868
:102440009A4201D00123B8E07B681B6803F00203C5
:10245000002B20D07B681B6803F00403002B05D001
:10246000594B5B68584A43F4E06353607B681B68D0
:1024700003F00803002B05D0534B5B68524A43F42A
:1024800060535360504B5B6823F0F0027B689B689D
:102490004D4913434B607B681B6803F00103002B1D
:1024A00040D07B685B68012B07D1474B1B6803F466
:1024B0000033002B15D101237FE07B685B68022B82
:1024C00007D1414B1B6803F00073002B09D1012396
:1024D00073E03D4B1B6803F00203002B01D1012385
:1024E0006BE0394B5B6823F003027B685B6836491D
:1024F00013434B60FEF75AFDF8600AE0FEF756FD05
:102500000246FB68D31A41F28832934201D9032371
:1025100053E02D4B5B6803F00C027B685B689B000B
:102520009A42EBD1274B1B6803F007033A689A42A3
:1025300010D2244B1B6823F0070222493B68134347
:102540000B60204B1B6803F007033A689A4201D0E6
:10255000012332E07B681B6803F00403002B08D0E2
:10256000194B5B6823F4E0627B68DB681649134310
:102570004B607B681B6803F00803002B09D0124BEB
:102580005B6823F460527B681B69DB000E491343D0
:102590004B6000F021F802460B4B5B681B0903F00F
:1025A0000F030A49CB5C22FA03F3094A1360094B73
:1025B0001B681846FEF772FB002318461037BD460D
:1025C00080BD00BF002002400010024074AB000834
:1025D000000000200400002080B487B000AF00237A
:1025E000FB600023BB6000237B6100237B60002332
:1025F0003B611E4B5B68FB60FB6803F00C03042B24
:1026000002D0082B03D027E0194B3B6127E0FB6881
:102610009B0C03F00F03174AD35C7B60FB6803F449
:102620008033002B10D0114B5B685B0C03F001036F
:10263000114AD35CBB607B680D4A02FB03F2BB68A6
:10264000B2FBF3F37B6104E07B680C4A02FB03F30B
:102650007B617B693B6102E0054B3B6100BF3B69ED
:1026600018461C37BD4680BC704700BF00100240B2
:1026700000127A008CAB00089CAB000800093D00FA
:1026800080B400AF024B1B681846BD4680BC704743
:102690000000002080B500AFFFF7F2FF0246054BB7
:1026A0005B681B0A03F007030349CB5C22FA03F3C0
:1026B000184680BD0010024084AB000880B500AF12
:1026C000FFF7DEFF0246054B5B68DB0A03F00703FA
:1026D0000349CB5C22FA03F3184680BD0010024088
:1026E00084AB000880B483B000AF786039607B6849
:1026F0000F221A60114B5B6803F003027B685A607B
:102700000E4B5B6803F0F0027B689A600B4B5B68D2
:1027100003F4E0627B68DA60084B5B68DB0803F473
:10272000E0627B681A61064B1B6803F007023B6896
:102730001A6000BF0C37BD4680BC704700100240D5
:102740000020024080B485B000AF78600A4B1B685F
:102750000A4AA2FB03235B0A7A6802FB03F3FB60CD
:1027600000BFFB685A1EFA60002BF9D100BF00BF02
:102770001437BD4680BC704700000020D34D621066
:1027800080B586B000AF786000233B610023FB601A
:102790007B681B6803F00103002B7DD00023FB75D1
:1027A0004F4BDB6903F08053002B0DD14C4BDB69A1
:1027B0004B4A43F08053D361494BDB6903F08053AC
:1027C000BB60BB680123FB75464B1B6803F4807339
:1027D000002B18D1434B1B68424A43F480731360AB
:1027E000FEF7E4FB386108E0FEF7E0FB02463B69D8
:1027F000D31A642B01D903236DE03A4B1B6803F411
:102800008073002BF0D0364B1B6A03F44073FB60DF
:10281000FB68002B2ED07B685B6803F44073FA687A
:102820009A4227D02E4B1B6A23F44073FB602E4B39
:1028300001221A602C4B00221A60294AFB6813629D
:10284000FB6803F00103002B14D0FEF7AFFB3861E7
:102850000AE0FEF7ABFB02463B69D31A41F288322D
:10286000934201D9032336E01D4B1B6A03F0020398
:10287000002BEED01A4B1B6A23F440727B685B6816
:10288000174913430B62FB7D012B05D1144BDB6908
:10289000134A23F08053D3617B681B6803F0020363
:1028A000002B08D00E4B5B6823F440427B689B688A
:1028B0000B4913434B607B681B6803F01003002B2C
:1028C00008D0074B5B6823F480027B68DB6804490F
:1028D00013434B60002318461837BD4680BD00BF28
:1028E00000100240007000404004424280B588B0B1
:1028F00000AF786000237B610023FB6100233B6114
:102900000023FB600023BB617B68102B0AD07B682F
:10291000102B00F28A807B68012B45D07B68022B4C
:1029200075D082E0464B5B68FB60454B1B6803F04B
:102930008073002B7BD0FB689B0C03F00F03414A94
:10294000D35C3B61FB6803F48033002B15D03C4B18
:102950005B685B0C03F001033B4AD35C7B61FB6863
:1029600003F48033002B0DD0384A7B69B2FBF3F2BD
:102970003B6902FB03F3FB6104E03B69344A02FB61
:1029800003F3FB612E4B5B6803F48003B3F5800F08
:1029900002D1FB69BB614AE0FB695B002D4AA2FBE7
:1029A00003235B08BB6142E0254B1B6AFB60FB68AD
:1029B00003F44073B3F5807F08D1FB6803F0020392
:1029C000002B03D04FF40043BB611FE0FB6803F40E
:1029D0004073B3F5007F09D1194B5B6A03F0020322
:1029E000002B03D049F64043BB610FE0FB6803F4C2
:1029F0004073B3F5407F1CD1114B1B6803F40033C7
:102A0000002B16D04FF22443BB6112E011E0FFF718
:102A100055FE02460A4B5B689B0B03F00303013330
:102A20005B00B2FBF3F3BB6104E000BF02E000BF58
:102A300000E000BFBB6918462037BD4680BD00BF1F
:102A400000100240A0AB0008B0AB000800127A00F2
:102A500000093D00ABAAAAAA80B582B000AF786099
:102A60007B68002B01D1012341E07B6893F83D3066
:102A7000DBB2002B06D17B68002283F83C2078680B
:102A8000FEF750F87B68022283F83D207B681A68C5
:102A90007B6804331946104600F074FA7B68012203
:102AA00083F846207B68012283F83E207B68012260
:102AB00083F83F207B68012283F840207B68012255
:102AC00083F841207B68012283F842207B68012241
:102AD00083F843207B68012283F844207B6801222D
:102AE00083F845207B68012283F83D2000231846A7
:102AF0000837BD4680BD000080B485B000AF786067
:102B00007B6893F83D30DBB2012B01D001233AE022
:102B10007B68022283F83D207B681B68DA687B684B
:102B20001B6842F00102DA607B681B68184A934216
:102B30000ED07B681B68B3F1804F09D07B681B689F
:102B4000144A934204D07B681B68134A934211D104
:102B50007B681B689B6803F00703FB60FB68062B20
:102B600010D07B681B681A687B681B6842F0010202
:102B70001A6007E07B681B681A687B681B6842F074
:102B800001021A60002318461437BD4680BC704706
:102B9000002C0140000400400008004080B582B0D5
:102BA00000AF78607B681B681B6903F00203022B8F
:102BB00022D17B681B68DB6803F00203022B1BD168
:102BC0007B681B686FF002021A617B6801221A772A
:102BD0007B681B689B6903F00303002B03D07868B4
:102BE00000F0B4F905E0786800F0A7F9786800F023
:102BF000B6F97B6800221A777B681B681B6903F0B3
:102C00000403042B22D17B681B68DB6803F00403F8
:102C1000042B1BD17B681B686FF004021A617B6870
:102C200002221A777B681B689B6903F44073002BB0
:102C300003D0786800F08AF905E0786800F07DF943
:102C4000786800F08CF97B6800221A777B681B6833
:102C50001B6903F00803082B22D17B681B68DB6823
:102C600003F00803082B1BD17B681B686FF0080278
:102C70001A617B6804221A777B681B68DB6903F0A2
:102C80000303002B03D0786800F060F905E0786852
:102C900000F053F9786800F062F97B6800221A7737
:102CA0007B681B681B6903F01003102B22D17B6823
:102CB0001B68DB6803F01003102B1BD17B681B68BB
:102CC0006FF010021A617B6808221A777B681B6814
:102CD000DB6903F44073002B03D0786800F036F909
:102CE00005E0786800F029F9786800F038F97B6829
:102CF00000221A777B681B681B6903F00103012B14
:102D00000ED17B681B68DB6803F00103012B07D140
:102D10007B681B686FF001021A617868FDF716FE88
:102D20007B681B681B6903F08003802B0ED17B68D6
:102D30001B68DB6803F08003802B07D17B681B686E
:102D40006FF080021A61786800F07BFA7B681B687C
:102D50001B6903F04003402B0ED17B681B68DB68C6
:102D600003F04003402B07D17B681B686FF04002E3
:102D70001A61786800F0FCF87B681B681B6903F037
:102D80002003202B0ED17B681B68DB6803F0200337
:102D9000202B07D17B681B686FF020021A617868CE
:102DA00000F046FA00BF0837BD4680BD80B584B04C
:102DB00000AF786039600023FB737B6893F83C3088
:102DC000012B01D10223B4E07B68012283F83C206F
:102DD0007B68022283F83D207B681B689B68BB6090
:102DE000BB6823F07703BB60BB6823F47F43BB6001
:102DF0007B681B68BA689A603B681B68B3F5005F24
:102E00003ED0B3F5005F00F28780B3F5805F00F03D
:102E10008680B3F5805F7FD8702B1AD0702B7BD85B
:102E2000602B50D0602B77D8502B3CD0502B73D8D0
:102E3000402B58D0402B6FD8302B64D0302B6BD820
:102E4000202B60D0202B67D8002B5CD0102B5AD0C1
:102E500062E07B6818683B6899683B685A683B6821
:102E6000DB6800F068F97B681B689B68BB60BB6827
:102E700043F07703BB607B681B68BA689A604FE0D9
:102E80007B6818683B6899683B685A683B68DB68F0
:102E900000F051F97B681B689A687B681B6842F4F4
:102EA00080429A603CE07B6818683B6859683B68E0
:102EB000DB681A4600F0C8F87B681B68502118468A
:102EC00000F01FF92CE07B6818683B6859683B6884
:102ED000DB681A4600F0E6F87B681B68602118463C
:102EE00000F00FF91CE07B6818683B6859683B6884
:102EF000DB681A4600F0A8F87B681B68402118467A
:102F000000F0FFF80CE07B681A683B681B68194604
:102F1000104600F0F6F803E00123FB7300E000BF69
:102F20007B68012283F83D207B68002283F83C20E7
:102F3000FB7B18461037BD4680BD80B483B000AF20
:102F4000786000BF0C37BD4680BC704780B483B04A
:102F500000AF786000BF0C37BD4680BC704780B4BE
:102F600083B000AF786000BF0C37BD4680BC7047AF
:102F700080B483B000AF786000BF0C37BD4680BC22
:102F80007047000080B485B000AF786039607B681E
:102F90001B68FB607B68294A93420BD07B68B3F1C6
:102FA000804F07D07B68264A934203D07B68254A2E
:102FB000934208D1FB6823F07003FB603B685B68B9
:102FC000FA681343FB607B681C4A93420BD07B6812
:102FD000B3F1804F07D07B68194A934203D07B68D6
:102FE000184A934208D1FB6823F44073FB603B68A6
:102FF000DB68FA681343FB60FB6823F080023B68E0
:103000005B691343FB607B68FA681A603B689A68E7
:103010007B68DA623B681A687B689A627B68074A59
:10302000934203D13B681A697B681A637B6801226B
:103030005A6100BF1437BD4680BC7047002C014068
:10304000000400400008004080B487B000AFF86082
:10305000B9607A60FB681B6A7B61FB681B6A23F0BE
:103060000102FB681A62FB689B693B613B6923F0C4
:10307000F0033B617B681B013A6913433B617B6949
:1030800023F00A037B617A69BB6813437B61FB68A9
:103090003A699A61FB687A691A6200BF1C37BD46BB
:1030A00080BC704780B487B000AFF860B9607A60C8
:1030B000FB681B6A7B61FB681B6A23F01002FB68DC
:1030C0001A62FB689B693B613B6923F470433B6177
:1030D0007B681B033A6913433B617B6923F0A003C0
:1030E0007B61BB681B017A6913437B61FB683A69AA
:1030F0009A61FB687A691A6200BF1C37BD4680BCC2
:10310000704780B485B000AF786039607B689B6899
:10311000FB60FB6823F07003FB603A68FB681343B5
:1031200043F00703FB607B68FA689A6000BF1437BE
:10313000BD4680BC704780B487B000AFF860B9600E
:103140007A603B60FB689B687B617B6923F47F430B
:103150007B613B681A027B681A43BB6813437A6938
:1031600013437B61FB687A699A6000BF1C37BD46D8
:1031700080BC704780B485B000AF786039607B68F0
:1031800093F83C30012B01D1022346E07B680122F9
:1031900083F83C207B68022283F83D207B681B6813
:1031A0005B68FB607B681B689B68BB60FB6823F007
:1031B0007003FB603B681B68FA681343FB607B6825
:1031C0001B68FA685A607B681B68164A93420ED0E7
:1031D0007B681B68B3F1804F09D07B681B68124A7B
:1031E000934204D07B681B68104A93420CD1BB68A1
:1031F00023F08003BB603B685B68BA681343BB6025
:103200007B681B68BA689A607B68012283F83D205E
:103210007B68002283F83C20002318461437BD4603
:1032200080BC7047002C01400004004000080040B2
:1032300080B483B000AF786000BF0C37BD4680BC5F
:10324000704780B483B000AF786000BF0C37BD46D4
:1032500080BC704780B582B000AF78607B68002B7F
:1032600001D1012342E07B6893F84130DBB2002BAF
:1032700006D17B68002283F840207868FDF776FC51
:103280007B68242283F841207B681B68DA687B68AE
:103290001B6822F40052DA60786800F0C5FD7B6894
:1032A0001B681A697B681B6822F490421A617B686C
:1032B0001B685A697B681B6822F02A025A617B6886
:1032C0001B68DA687B681B6842F40052DA607B682E
:1032D00000225A647B68202283F841207B682022E8
:1032E00083F842207B6800225A630023184608377F
:1032F000BD4680BD80B58AB002AFF860B9603B6062
:103300001346FB8000237B61FB6893F84130DBB2FE
:10331000202B6DD1BB68002B02D0FB88002B01D184
:10332000012366E0FB6800225A64FB68212283F8CF
:103330004120FDF73BFE7861FB68FA889A84FB68C0
:10334000FA88DA84FB689B68B3F5805F08D1FB6874
:103350001B69002B04D10023FB61BB68BB6103E048
:10336000BB68FB610023BB612AE03B6800937B697B
:1033700000228021F86800F014FB0346002B01D0E6
:10338000032336E0FB69002B0BD1BB691B881A466F
:10339000FB681B68C2F308025A60BB690233BB6159
:1033A00007E0FB691A78FB681B685A60FB69013308
:1033B000FB61FB68DB8C9BB2013B9AB2FB68DA8451
:1033C000FB68DB8C9BB2002BCFD13B6800937B6901
:1033D00000224021F86800F0E4FA0346002B01D0F7
:1033E000032306E0FB68202283F84120002300E04D
:1033F000022318462037BD4680BD80B584B000AF9B
:10340000F860B9601346FB80FB6893F84230DBB28A
:10341000202B12D1BB68002B02D0FB88002B01D1DE
:1034200001230BE0FB6800221A63FB881A46B96887
:10343000F86800F024FB034600E00223184610372A
:10344000BD4680BD80B5BAB000AF78607B681B68B0
:103450001B68C7F8E4307B681B68DB68C7F8E0309E
:103460007B681B685B69C7F8DC300023C7F8D8307D
:103470000023C7F8D430D7F8E43003F00F03C7F8BF
:10348000D830D7F8D830002B0FD1D7F8E43003F07C
:103490002003002B09D0D7F8E03003F02003002BE5
:1034A00003D0786800F001FC5BE2D7F8D830002B3D
:1034B00000F0DE80D7F8DC3003F00103002B06D1EA
:1034C000D7F8E03003F49073002B00F0D180D7F8E8
:1034D000E43003F00103002B0BD0D7F8E03003F405
:1034E0008073002B05D07B685B6C43F001027B6826
:1034F0005A64D7F8E43003F00403002B0BD0D7F85C
:10350000DC3003F00103002B05D07B685B6C43F0DB
:1035100002027B685A64D7F8E43003F00203002B00
:103520000BD0D7F8DC3003F00103002B05D07B680B
:103530005B6C43F004027B685A64D7F8E43003F014
:103540000803002B11D0D7F8E03003F02003002B44
:1035500005D1D7F8DC3003F00103002B05D07B68E0
:103560005B6C43F008027B685A647B685B6C002BE1
:1035700000F0F281D7F8E43003F02003002B08D0EC
:10358000D7F8E03003F02003002B02D0786800F079
:103590008CFB7B681B685B6903F04003002B14BF46
:1035A00001230023DBB2C7F8D4307B685B6C03F0E7
:1035B0000803002B03D1D7F8D430002B4FD0786804
:1035C00000F096FA7B681B685B6903F04003002BF0
:1035D00041D07B681B681433C7F89C30D7F89C3007
:1035E00053E8003FC7F89830D7F8983023F04003ED
:1035F000C7F8D0307B681B681433D7F8D020C7F8E1
:10360000A820C7F8A430D7F8A410D7F8A82041E81C
:103610000023C7F8A030D7F8A030002BD9D17B68A1
:10362000DB6B002B13D07B68DB6B7E4A5A637B68B5
:10363000DB6B1846FEF73AFA0346002B16D07B6880
:10364000DB6B5B6B7A68D26B104698470EE078684C
:1036500000F093F90AE0786800F08FF906E07868E6
:1036600000F08BF97B6800225A6475E100BF73E1BA
:103670007B681B6B012B40F04F81D7F8E43003F0DF
:103680001003002B00F04881D7F8E03003F010035E
:10369000002B00F041810023BB607B681B681B6826
:1036A000BB607B681B685B68BB60BB687B681B6832
:1036B0005B6903F04003002B00F0B6807B68DB6B96
:1036C0001B685B68A7F8BE30B7F8BE30002B00F06F
:1036D00045817B689B8DB7F8BE209A4280F03E8181
:1036E0007B68B7F8BE20DA857B68DB6B9B69202B93
:1036F00000F088807B681B680C33C7F88830D7F8E7
:10370000883053E8003FC7F88430D7F8843023F47A
:103710008073C7F8B8307B681B680C33D7F8B820C3
:10372000C7F89420C7F89030D7F89010D7F89420B5
:1037300041E80023C7F88C30D7F88C30002BD9D162
:103740007B681B6814337B677B6F53E8003F3B67E4
:103750003B6F23F00103C7F8B4307B681B68143358
:10376000D7F8B420C7F88020FB67F96FD7F880201E
:1037700041E80023BB67BB6F002BE1D17B681B686E
:1037800014333B663B6E53E8003FFB65FB6D23F053
:103790004003C7F8B0307B681B681433D7F8B020FB
:1037A000FA66BB66B96EFA6E41E800237B667B6EF3
:1037B000002BE3D17B68202283F842207B68002223
:1037C0001A637B681B680C33FB64FB6C53E8003F97
:1037D000BB64BB6C23F01003C7F8AC307B681B687C
:1037E0000C33D7F8AC20BA657B65796DBA6D41E8CA
:1037F00000233B653B6D002BE3D17B68DB6B1846F8
:10380000FEF719F97B6802225A637B689A8D7B6800
:10381000DB8D9BB2D31A9BB21946786800F0B6F8DC
:103820009CE000BFB53B00087B689A8D7B68DB8D10
:103830009BB2D31AA7F8CE307B68DB8D9BB2002BEE
:1038400000F08E80B7F8CE30002B00F089807B68C6
:103850001B680C33BB63BB6B53E8003F7B637B6B24
:1038600023F49073C7F8C8307B681B680C33D7F813
:10387000C8207A643B64396C7A6C41E80023FB63AE
:10388000FB6B002BE3D17B681B6814337B627B6A84
:1038900053E8003F3B623B6A23F00103C7F8C430A2
:1038A0007B681B681433D7F8C4203A63FB62F96A5B
:1038B0003A6B41E80023BB62BB6A002BE3D17B6813
:1038C000202283F842207B6800221A637B681B68F1
:1038D0000C333B613B6953E8003FFB60FB6823F01E
:1038E0001003C7F8C0307B681B680C33D7F8C020C2
:1038F000FA61BB61B969FA6941E800237B617B69C0
:10390000002BE3D17B6802225A63B7F8CE30194608
:10391000786800F03BF823E0D7F8E43003F0800348
:10392000002B09D0D7F8E03003F08003002B03D040
:10393000786800F053F914E0D7F8E43003F040035E
:10394000002B0ED0D7F8E03003F04003002B08D056
:10395000786800F092F904E000BF02E000BF00E0E8
:1039600000BFE837BD4680BD80B483B000AF78604B
:1039700000BF0C37BD4680BC704780B483B000AF39
:10398000786000BF0C37BD4680BC704780B483B000
:1039900000AF78600B467B8000BF0C37BD4680BC13
:1039A000704780B590B000AFF860B9603B601346D7
:1039B000FB7150E0BB6CB3F1FF3F4CD0BB6C002BF4
:1039C00007D0FDF7F3FA02463B68D31ABA6C9A4265
:1039D00041D2FB681B680C33BB62BB6A53E8003FF3
:1039E0007B627B6A23F4D073FB63FB681B680C3338
:1039F000FA6B7A633B63396B7A6B41E80023FB62B5
:103A0000FB6A002BE5D1FB681B6814337B617B6983
:103A100053E8003F3B613B6923F00103BB63FB6854
:103A20001B681433BA6B3A62FB61F9693A6A41E880
:103A30000023BB61BB69002BE5D1FB68202283F822
:103A40004120FB68202283F84220FB68002283F893
:103A5000402003230FE0FB681B681A68BB68134013
:103A6000BA689A420CBF01230023DBB21A46FB79E5
:103A70009A429FD0002318464037BD4680BD80B48F
:103A800085B000AFF860B9601346FB80FB68BA6888
:103A90009A62FB68FA889A85FB68FA88DA85FB687F
:103AA00000225A64FB68222283F84220FB681B69CB
:103AB000002B07D0FB681B68DA68FB681B6842F4C0
:103AC0008072DA60FB681B685A69FB681B6842F009
:103AD00001025A61FB681B68DA68FB681B6842F0E8
:103AE0002002DA60002318461437BD4680BC7047B8
:103AF00080B495B000AF78607B681B680C337B6343
:103B00007B6B53E8003F3B633B6B23F49073FB6498
:103B10007B681B680C33FA6C3A64FB63F96B3A6C94
:103B200041E80023BB63BB6B002BE5D17B681B68BE
:103B300014333B623B6A53E8003FFB61FB6923F0AF
:103B40000103BB647B681B681433BA6CFA62BB6206
:103B5000B96AFA6A41E800237B627B6A002BE5D1EF
:103B60007B681B6B012B19D17B681B680C33FB60D6
:103B7000FB6853E8003FBB60BB6823F010037B6425
:103B80007B681B680C337A6CBA617B617969BA69AE
:103B900041E800233B613B69002BE5D17B68202293
:103BA00083F842207B6800221A6300BF5437BD4669
:103BB00080BC704780B584B000AF78607B685B6A7A
:103BC000FB60FB680022DA85FB680022DA84F86873
:103BD000FFF7D3FE00BF1037BD4680BD80B485B06F
:103BE00000AF78607B6893F84130DBB2212B3ED187
:103BF0007B689B68B3F5805F14D17B681B69002BE1
:103C000010D17B681B6AFB60FB681B881A467B68C7
:103C10001B68C2F308025A607B681B6A9A1C7B68A7
:103C20001A6208E07B681B6A591C7A6811621A786C
:103C30007B681B685A607B68DB8C9BB2013B9BB244
:103C40007A681946D184002B0FD17B681B68DA682B
:103C50007B681B6822F08002DA607B681B68DA6888
:103C60007B681B6842F04002DA60002300E0022318
:103C700018461437BD4680BC704780B582B000AF8F
:103C800078607B681B68DA687B681B6822F04002FA
:103C9000DA607B68202283F841207868FFF764FEB1
:103CA000002318460837BD4680BD80B58CB000AFF4
:103CB00078607B6893F84230DBB2222B40F0AE8014
:103CC0007B689B68B3F5805F17D17B681B69002B0D
:103CD00013D10023FB627B689B6ABB627B681B6815
:103CE0005B689BB2C3F308039AB2BB6A1A807B6815
:103CF0009B6A9A1C7B689A6226E07B689B6AFB62DF
:103D00000023BB627B689B68B3F5805F07D07B684C
:103D10009B68002B0AD17B681B69002B06D17B684E
:103D20001B685B68DAB2FB6A1A7008E07B681B6884
:103D30005B68DBB203F07F03DAB2FB6A1A707B6860
:103D40009B6A5A1C7B689A627B68DB8D9BB2013B45
:103D50009BB27A681946D185002B5DD17B681B68C0
:103D6000DA687B681B6822F02002DA607B681B68D7
:103D7000DA687B681B6822F48072DA607B681B68F3
:103D80005A697B681B6822F001025A617B68202215
:103D900083F842207B6800225A637B681B6B012BEF
:103DA00035D17B6800221A637B681B680C337B610A
:103DB0007B6953E8003F3B613B6923F010037B6262
:103DC0007B681B680C337A6A3A62FB61F9693A6A6C
:103DD00041E80023BB61BB69002BE5D17B681B6810
:103DE0001B6803F01003102B0AD10023FB607B68D3
:103DF0001B681B68FB607B681B685B68FB60FB687B
:103E00007B689B8D19467868FFF7C0FD02E07868F3
:103E100005F09AF9002302E0002300E0022318468F
:103E20003037BD4680BD000080B584B000AF7860FB
:103E30007B681B681B6923F440517B68DA687B68E8
:103E40001B680A431A617B689A687B681B691A437E
:103E50007B685B691343BB607B681B68DB6823F48A
:103E6000B05323F00C037A681268B9680B43D3602F
:103E70007B681B685B6923F440717B689A697B6887
:103E80001B680A435A617B681B682C4A934203D122
:103E9000FEF714FCF86002E0FEF7FCFBF860FA683D
:103EA00013469B0013449A001A447B685B689B008E
:103EB000B2FBF3F3224AA2FB03235B091901FA6860
:103EC00013469B0013449A001A447B685B689B006E
:103ED000B2FBF3F21A4BA3FB02035B09642000FB65
:103EE00003F3D31A1B013233154AA2FB03235B09E8
:103EF00003F0F0031944FA6813469B0013449A0038
:103F00001A447B685B689B00B2FBF3F20C4BA3FB8B
:103F100002035B09642000FB03F3D31A1B01323355
:103F2000074AA2FB03235B0903F00F027B681B68AF
:103F30000A449A6000BF1037BD4680BD003801407A
:103F40001F85EB5180B485B000AF0346FB80002392
:103F5000FB60B7F90630842B05D0B7F90620FB6863
:103F600013440333FB60FB6818461437BD4680BC1E
:103F7000704780B500AF01F0BBF80023184680BD44
:103F8000F0B589B004AF786039607B685B69002B5D
:103F900020D07B689B69002B1CD07B685C687B68A9
:103FA0001D687B681E697B68B3F908301846FFF707
:103FB000C9FF01467B685B697A6892690292019346
:103FC00000913B6832462946204600F0BBFE03467E
:103FD000FB601CE07B685C687B681D687B681B6914
:103FE0009EB27B68B3F908301846FFF7ABFF024674
:103FF00007F10C03019300923B68324629462046A4
:1040000000F0FCFE0346012B01D0002300E0FB681A
:1040100018461437BD46F0BD90B585B002AF786044
:1040200039607B689B68002B11D07B68DB68002BB4
:104030000DD07B6818687B6859687B689A687B68D4
:10404000DB680024009400F0BBFA034608E07B68BC
:1040500018687B685B680022194600F028FB03465D
:1040600018460C37BD4690BD80B582B000AF1C200D
:1040700001F0CEFF78607B68002B0AD07B680022BD
:104080001A607B680433184600F082F97B680022CE
:104090001A767B6818460837BD4680BD80B590B05B
:1040A00000AFF860B9607A603B60FB687B63002317
:1040B000BB6300233B63FB68002B0AD14FF0500326
:1040C00083F31188BFF36F8FBFF34F8F3B6200BF45
:1040D000FEE7BB6803F07F43002B0AD04FF050038C
:1040E00083F31188BFF36F8FBFF34F8FFB6100BF66
:1040F000FEE7BB68002B0AD14FF0500383F3118811
:10410000BFF36F8FBFF34F8FBB6100BFFEE701F0BE
:10411000A9FC0346002B02D1BB6C002B01D101236B
:1041200000E00023002B0AD14FF0500383F31188E5
:10413000BFF36F8FBFF34F8F7B6100BFFEE701F0CE
:1041400041F87B6B1B68FB623A68B968F86A00F05B
:10415000FEF8B862BB6A002B0ED0FB6AFB6300233B
:10416000BB647B68002B28D07B6B1A68BB68DB4381
:104170001A407B6B1A6020E0BB6C002B04D1FB6AF9
:10418000FB6301233B6318E07B68002B03D0BB6B10
:1041900043F08073BB633B68002B03D0BB6B43F0E1
:1041A0008063BB637B6B181DBA68BB6B1343BA6C2F
:1041B000194601F0F5F90023FB6301F011F878626C
:1041C000BB6C002B31D07B6A002B07D1194B4FF011
:1041D00080521A60BFF34F8FBFF36F8F01F0E6FC80
:1041E000F863FB6B03F00073002B1AD101F04EFE55
:1041F0007B6B1B68FB633A68B968F86B00F0A7F843
:104200000346002B09D07B68002B06D07B6B1A6815
:10421000BB68DB431A407B6B1A6001233B6301F0F0
:1042200065FEFB6B23F07F43FB63FB6B1846403757
:10423000BD4680BD04ED00E080B58EB000AF786073
:10424000396000233B637B68BB620023FB627B68B1
:10425000002B0AD14FF0500383F31188BFF36F8F07
:10426000BFF34F8F3B6100BFFEE73B6803F07F4326
:10427000002B0AD04FF0500383F31188BFF36F8FE8
:10428000BFF34F8FFB6000BFFEE7BB6A04337B6266
:104290007B6A08333B6200F095FF7B6ADB687B63D7
:1042A000BB6A1A683B681A43BB6A1A603CE07B6BC6
:1042B0005B68FB617B6B1B68BB610023FB62BB69B6
:1042C00003F07F437B61BB6923F07F43BB617B6964
:1042D00003F08063002B08D1BB6A1A68BB691340E6
:1042E000002B0BD00123FB6208E0BB6A1A68BB6994
:1042F0001340BA699A4201D10123FB62FB6A002B89
:1043000010D07B6903F08073002B03D03A6BBB693C
:1043100013433B63BB6A1B6843F000731946786B19
:1043200001F0DCF9FB697B637A6B3B6A9A42BED190
:10433000BB6A1A683B6BDB431A40BB6A1A6000F029
:104340004FFFBB6A1B6818463837BD4680BD80B436
:1043500087B000AFF860B9607A6000237B617B684A
:10436000002B07D1FA68BB681340002B0AD0012349
:104370007B6107E0FA68BB681340BA689A4201D1D2
:1043800001237B617B6918461C37BD4680BC7047A2
:1043900080B483B000AF78607B6803F108027B686B
:1043A0005A607B684FF0FF329A607B6803F1080225
:1043B0007B68DA607B6803F108027B681A617B68BE
:1043C00000221A6000BF0C37BD4680BC704780B425
:1043D00083B000AF78607B6800221A6100BF0C37A1
:1043E000BD4680BC704780B485B000AF786039604E
:1043F0007B685B68FB603B68FA685A60FB689A6898
:104400003B689A60FB689B683A685A60FB683A6848
:104410009A603B687A681A617B681B685A1C7B68E3
:104420001A6000BF1437BD4680BC704780B485B0A9
:1044300000AF786039603B681B68BB60BB68B3F154
:10444000FF3F03D17B681B69FB600CE07B6808338E
:10445000FB6002E0FB685B68FB60FB685B681B68F5
:10446000BA689A42F6D2FB685A683B685A603B6861
:104470005B683A689A603B68FA689A60FB683A68D9
:104480005A603B687A681A617B681B685A1C7B68B3
:104490001A6000BF1437BD4680BC704780B485B039
:1044A00000AF78607B681B69FB607B685B687A683B
:1044B00092689A607B689B687A6852685A60FB6869
:1044C0005B687A689A4203D17B689A68FB685A6095
:1044D0007B6800221A61FB681B685A1EFB681A6021
:1044E000FB681B6818461437BD4680BC7047000047
:1044F00080B584B000AF786039607B68FB60FB6892
:10450000002B0AD14FF0500383F31188BFF36F8F54
:10451000BFF34F8FBB6000BFFEE701F0B7FCFB6845
:104520001A68FB68DB6BF968096C01FB03F31A443A
:10453000FB685A60FB6800229A63FB681A68FB6894
:104540009A60FB681A68FB68DB6B013BF968096CD1
:1045500001FB03F31A44FB68DA60FB68FF2283F86F
:104560004420FB68FF2283F845203B68002B14D1D0
:10457000FB681B69002B1AD0FB681033184601F04A
:104580004BF80346002B12D00C4B4FF080521A60B0
:10459000BFF34F8FBFF36F8F09E0FB6810331846EE
:1045A000FFF7F6FEFB6824331846FFF7F1FE01F033
:1045B0009DFC012318461037BD4680BD04ED00E088
:1045C00080B58EB002AFF860B9607A603B60FB687E
:1045D000002B0AD14FF0500383F31188BFF36F8F84
:1045E000BFF34F8FBB6200BFFEE73B68002B0AD1D1
:1045F0004FF0500383F31188BFF36F8FBFF34F8FDA
:104600007B6200BFFEE77B68002B02D0BB68002BFB
:1046100001D0012300E00023002B0AD14FF050030A
:1046200083F31188BFF36F8FBFF34F8F3B6200BFDF
:10463000FEE77B68002B02D1BB68002B01D1012370
:1046400000E00023002B0AD14FF0500383F31188C0
:10465000BFF36F8FBFF34F8FFB6100BFFEE74823AF
:104660007B617B69482B0AD04FF0500383F311889C
:10467000BFF36F8FBFF34F8FBB6100BFFEE73B6897
:10468000FB62FB6A002B0DD0FB6A012283F84620F7
:1046900097F83820FB6A009313467A68B968F8687F
:1046A00000F043F8FB6A18463037BD4680BD80B540
:1046B0008AB002AFF860B9601346FB71FB68002B4B
:1046C0000AD14FF0500383F31188BFF36F8FBFF30C
:1046D0004F8F3B6100BFFEE7BB68002B02D1002378
:1046E000FB6104E0FB68BA6802FB03F3FB61FB6952
:1046F0004833184601F08CFCB861BB69002B0FD021
:10470000BB6948337B61BB69002283F84620FA7994
:10471000BB69009313467A69B968F86800F005F838
:10472000BB6918462037BD4680BD80B584B000AF58
:10473000F860B9607A60FB70BB68002B03D1BB697D
:10474000BA691A6002E0BB697A681A60BB69FA68E4
:10475000DA63BB69BA681A640121B869FFF7C8FE59
:1047600000BF1037BD4680BD80B58EB000AFF86089
:10477000B9607A603B6000237B63FB683B633B6B03
:10478000002B0AD14FF0500383F31188BFF36F8FD2
:10479000BFF34F8FBB6200BFFEE7BB68002B03D1A6
:1047A0003B6B1B6C002B01D1012300E00023002B8D
:1047B0000AD14FF0500383F31188BFF36F8FBFF31B
:1047C0004F8F7B6200BFFEE73B68022B03D13B6B40
:1047D000DB6B012B01D1012300E00023002B0AD168
:1047E0004FF0500383F31188BFF36F8FBFF34F8FE8
:1047F0003B6200BFFEE701F035F90346002B02D112
:104800007B68002B01D1012300E00023002B0AD19B
:104810004FF0500383F31188BFF36F8FBFF34F8FB7
:10482000FB6100BFFEE701F031FB3B6B9A6B3B6B1A
:10483000DB6B9A4202D33B68022B29D13A68B968F4
:10484000386B00F06FF9F8623B6B5B6A002B10D09D
:104850003B6B2433184600F0DFFE0346002B13D0D9
:104860003F4B4FF080521A60BFF34F8FBFF36F8FF3
:104870000AE0FB6A002B07D0394B4FF080521A60D8
:10488000BFF34F8FBFF36F8F01F030FB012363E065
:104890007B68002B03D101F029FB00235CE07B6BDC
:1048A000002B06D107F11403184600F079FF01230D
:1048B0007B6301F01BFB00F085FC01F0E7FA3B6B2A
:1048C00093F844305BB2B3F1FF3F03D13B6B00225E
:1048D00083F844203B6B93F845305BB2B3F1FF3F64
:1048E00003D13B6B002283F8452001F0FFFA3A1D0B
:1048F00007F114031146184600F068FF0346002B29
:1049000024D1386B00F006FA0346002B18D03B6B1D
:1049100010337A681146184600F01EFE386B00F01E
:1049200091F900F05DFC0346002B7FF47CAF0C4B4B
:104930004FF080521A60BFF34F8FBFF36F8F72E753
:10494000386B00F07FF900F04BFC6CE7386B00F03F
:1049500079F900F045FC002318463837BD4680BD84
:1049600004ED00E080B58CB000AFF860B9607A600B
:104970000023FB62FB68BB62BB6A002B0AD14FF0CD
:10498000500383F31188BFF36F8FBFF34F8F3B62E8
:1049900000BFFEE7BB68002B03D1BB6A1B6C002B7A
:1049A00001D1012300E00023002B0AD14FF0500376
:1049B00083F31188BFF36F8FBFF34F8FFB6100BF8D
:1049C000FEE701F04FF80346002B02D17B68002B75
:1049D00001D1012300E00023002B0AD14FF0500346
:1049E00083F31188BFF36F8FBFF34F8FBB6100BF9D
:1049F000FEE701F04BFABB6A9B6B7B627B6A002B84
:104A00001FD0B968B86A00F0F7F87B6A5A1EBB6A13
:104A10009A63BB6A1B69002B0FD0BB6A1033184620
:104A200000F0FAFD0346002B07D03D4B4FF08052BB
:104A30001A60BFF34F8FBFF36F8F01F057FA012356
:104A400069E07B68002B03D101F050FA002362E09B
:104A5000FB6A002B06D107F11003184600F0A0FEF8
:104A60000123FB6201F042FA00F0ACFB01F00EFA08
:104A7000BB6A93F844305BB2B3F1FF3F03D1BB6A2A
:104A8000002283F84420BB6A93F845305BB2B3F14F
:104A9000FF3F03D1BB6A002283F8452001F026FACC
:104AA0003A1D07F110031146184600F08FFE034629
:104AB000002B23D1B86A00F017F90346002B17D05A
:104AC000BB6A24337A681146184600F045FDB86A7F
:104AD00000F0B8F800F084FB0346002B89D1104B9E
:104AE0004FF080521A60BFF34F8FBFF36F8F80E794
:104AF000B86A00F0A7F800F073FB7AE7B86A00F034
:104B0000A1F800F06DFBB86A00F0EEF80346002B48
:104B10003FF46FAF002318463037BD4680BD00BF5D
:104B200004ED00E080B586B000AFF860B9607A604F
:104B300000237B61FB689B6B3B61FB681B6C002B5C
:104B40000DD1FB681B68002B4DD1FB685B681846D4
:104B500000F0A6FF7861FB6800225A6043E07B68A2
:104B6000002B19D1FB689868FB681B6C1A46B96862
:104B700004F098FCFB689A68FB681B6C1A44FB689D
:104B80009A60FB689A68FB685B689A422BD3FB6863
:104B90001A68FB689A6026E0FB68D868FB681B6CA3
:104BA0001A46B96804F07EFCFB68DA68FB681B6C87
:104BB0005B421A44FB68DA60FB68DA68FB681B68D2
:104BC0009A4207D2FB685A68FB681B6C5B421A4426
:104BD000FB68DA607B68022B05D13B69002B02D0B1
:104BE0003B69013B3B613B695A1CFB689A637B69EB
:104BF00018461837BD4680BD80B582B000AF7860DA
:104C000039607B681B6C002B18D07B68DA687B6886
:104C10001B6C1A447B68DA607B68DA687B685B68C7
:104C20009A4203D37B681A687B68DA607B68D9682C
:104C30007B681B6C1A46386804F034FC00BF0837E8
:104C4000BD4680BD80B584B000AF786001F01EF92C
:104C50007B6893F84530FB7311E07B685B6A002B3F
:104C600012D07B682433184600F0D6FC0346002B94
:104C700001D000F00DFEFB7B013BDBB2FB7397F92B
:104C80000F30002BE9DC00E000BF7B68FF2283F8D7
:104C9000452001F02BF901F0F9F87B6893F84430D6
:104CA000BB7311E07B681B69002B12D07B6810334B
:104CB000184600F0B1FC0346002B01D000F0E8FDDF
:104CC000BB7B013BDBB2BB7397F90E30002BE9DCF9
:104CD00000E000BF7B68FF2283F8442001F006F962
:104CE00000BF1037BD4680BD80B584B000AF78608E
:104CF00001F0CCF87B689B6B002B02D10123FB6099
:104D000001E00023FB6001F0F1F8FB681846103762
:104D1000BD4680BD80B584B000AF786001F0B6F8C4
:104D20007B689A6B7B68DB6B9A4202D10123FB6044
:104D300001E00023FB6001F0D9F8FB68184610374A
:104D4000BD4680BD80B58EB004AFF860B9607A60B2
:104D50003B607B6B002B0AD14FF0500383F311882B
:104D6000BFF36F8FBFF34F8F3B6200BFFEE7BB6B9C
:104D7000002B0AD14FF0500383F31188BFF36F8FDC
:104D8000BFF34F8FFB6100BFFEE7B4233B613B697C
:104D9000B42B0AD04FF0500383F31188BFF36F8F09
:104DA000BFF34F8FBB6100BFFEE7BB6B002B1ED074
:104DB0007B6B002B1BD0BB6B7B627B6A7A6B1A63AD
:104DC0007B6A022283F8B120002303937B6A02935B
:104DD00007F1140301933B6B00933B687A68B96851
:104DE000F86800F051F8786A00F0E4F801E0002378
:104DF0007B617B6918462837BD4680BD80B58CB085
:104E000004AFF860B9603B601346FB80FB889B00F1
:104E1000184601F0FDF878617B69002B0ED0B420B4
:104E200001F0F6F8F861FB69002B03D0FB697A69A1
:104E30001A6305E0786901F0AFF901E00023FB6136
:104E4000FB69002B17D0FB69002283F8B120FA8898
:104E500000230393FB690293FB6A0193BB6A0093EF
:104E60003B68B968F86800F00FF8F86900F0A2F83C
:104E70000123BB6102E04FF0FF33BB61BB69184601
:104E80002037BD4680BD000080B588B000AFF86017
:104E9000B9607A603B603B6B1A6B7B6803F18043BF
:104EA000013B9B001344BB61BB6923F00703BB615B
:104EB000BB6903F00703002B0AD04FF0500383F3C4
:104EC0001188BFF36F8FBFF34F8F7B6100BFFEE789
:104ED0000023FB6112E0BA68FB69134419783A6B4E
:104EE000FB69134434330A461A70BA68FB691344E9
:104EF0001B78002B06D0FB690133FB61FB690F2B8C
:104F0000E9D900E000BF3B6B002283F84320BB6A75
:104F1000062B01D90623BB623B6BBA6ADA623B6B94
:104F2000BA6A5A643B6B00229A643B6B043318469E
:104F3000FFF74DFA3B6B18331846FFF748FA3B6B07
:104F40003A6B1A61BB6AC3F107023B6B9A613B6B18
:104F50003A6B5A623B6B0022C3F8AC203B6B0022D9
:104F600083F8B0203B6B4C3360220021184604F0DC
:104F7000A7FA3B6B0C4A1A653B6B0C4A5A653B6BB4
:104F80000B4A9A653A68F968B86900F08DFE0246E6
:104F90003B6B1A60FB6A002B02D0FB6A3A6B1A600B
:104FA00000BF2037BD4680BD14AC000834AC0008FB
:104FB000F4AB000880B582B000AF786000F066FF07
:104FC0002A4B1B680133294A1360294B1B68002BAD
:104FD00009D1274A7B681360244B1B68012B10D131
:104FE00000F07AFC0DE0234B1B68002B09D1204B0D
:104FF0001B68DA6A7B68DB6A9A4202D81C4A7B68C3
:1050000013601D4B1B6801331B4A13607B68DB6A0E
:1050100001229A40194B1B681343184A13607B689E
:10502000DA6A13469B0013449B00154A1A447B68B6
:10503000043319461046FFF7D6F900F057FF0D4B21
:105040001B68002B0ED00A4B1B68DA6A7B68DB6A90
:105050009A4207D20B4B4FF080521A60BFF34F8F2A
:10506000BFF36F8F00BF0837BD4680BD4C040020E2
:105070004C03002058040020680400205404002041
:105080005003002004ED00E080B584B000AF7860EC
:105090000023FB607B68002B17D0134B1B68002B91
:1050A0000AD04FF0500383F31188BFF36F8FBFF323
:1050B0004F8FBB6000BFFEE700F084F800217868E6
:1050C00000F08CFD00F08CF8F860FB68002B07D135
:1050D000064B4FF080521A60BFF34F8FBFF36F8FB4
:1050E00000BF1037BD4680BD7404002004ED00E011
:1050F00080B58AB004AF0023BB6000237B603A46D2
:10510000391D07F108031846FBF72AF839687B6850
:10511000BA68029201930023009300230A462149B2
:105120002148FFF70FFE0346204A13601F4B1B6800
:10513000002B02D001237B6101E000237B617B69AE
:10514000012B1BD14FF0500383F31188BFF36F8FF6
:10515000BFF34F8F3B6100BF154B1B684C33154AA3
:105160001360154B4FF0FF321A60144B01221A6086
:10517000134B00221A6000F017FE0EE07B69B3F1BA
:10518000FF3F0AD14FF0500383F31188BFF36F8FB5
:10519000BFF34F8FFB6000BFFEE700BF1837BD466F
:1051A00080BD00BFCCA70008A958000870040020EB
:1051B0004C030020140000206C0400205804002040
:1051C0005004002080B400AF044B1B680133034A35
:1051D000136000BFBD4680BC704700BF7404002050
:1051E00080B584B000AF0023FB600023BB60414B5F
:1051F0001B68002B0AD14FF0500383F31188BFF3D3
:105200006F8FBFF34F8F3B6000BFFEE700F03EFEA5
:10521000384B1B68013B374A1360364B1B68002B29
:1052200061D1354B1B68002B5DD02EE0334BDB6822
:10523000DB68FB60FB6818331846FFF72FF9FB6843
:1052400004331846FFF72AF9FB68DB6A01229A400B
:105250002B4B1B6813432A4A1360FB68DA6A134618
:105260009B0013449B00274A1A44FB6804331946E9
:105270001046FFF7B8F8FB68DA6A234B1B68DB6A55
:105280009A4202D3214B01221A601C4B1B68002B4F
:10529000CCD1FB68002B01D000F0C0FB1C4B1B687D
:1052A0007B607B68002B10D000F036F80346002BA3
:1052B00002D0164B01221A607B68013B7B607B6841
:1052C000002BF1D1124B00221A60104B1B68002BEF
:1052D00009D00123BB600F4B4FF080521A60BFF31F
:1052E0004F8FBFF36F8F00F001FEBB681846103779
:1052F000BD4680BD740400204C0400200C04002036
:1053000054040020500300204C03002060040020BF
:105310005C04002004ED00E080B586B000AF0023FF
:105320007B61514B1B68002B40F08D804F4B1B68FD
:1053300001333B614D4A3B6913603B69002B20D12F
:105340004B4B1B681B68002B0AD04FF0500383F3B4
:105350001188BFF36F8FBFF34F8F3B6000BFFEE735
:10536000434B1B68FB60434B1B68414A1360414A37
:10537000FB681360404B1B6801333F4A136000F029
:105380004DFB3E4B1B683A699A424DD3384B1B6824
:105390001B68002B01D1012300E00023002B04D067
:1053A000364B4FF0FF321A603EE0314B1B68DB6832
:1053B000DB68BB60BB685B687B603A697B689A426C
:1053C00003D22E4A7B6813602EE0BB680433184674
:1053D000FFF764F8BB689B6A002B04D0BB681833E6
:1053E0001846FFF75BF8BB68DB6A01229A40244B42
:1053F0001B681343224A1360BB68DA6A13469B009A
:1054000013449B001F4A1A44BB68043319461046D4
:10541000FEF7E9FFBB68DA6A1B4B1B68DB6A9A423E
:10542000B4D301237B61B1E7174B1B68DA6A1549D6
:1054300013469B0013449B000B441B68012B07D9A8
:1054400001237B6104E0114B1B6801330F4A136099
:105450000F4B1B68002B01D001237B617B69184631
:105460001837BD4680BD00BF7404002050040020E2
:105470000404002008040020640400206C040020C0
:1054800054040020500300204C0300205C04002042
:105490006004002080B487B000AF294B1B68002B4C
:1054A00003D0284B01221A6044E0264B00221A60E8
:1054B000254B1B68FB60FB68B3FA83F3FB72FB7A36
:1054C000C3F11F037B6121497A6913469B00134492
:1054D0009B000B441B68002B0AD14FF0500383F351
:1054E0001188BFF36F8FBFF34F8F7B6000BFFEE764
:1054F0007A6913469B0013449B00144A13443B6192
:105500003B695B685A683B695A603B695A683B690A
:1055100008339A4204D13B695B685A683B695A6018
:105520003B695B68DB680A4A1360094B1B684C33B4
:10553000084A136000BF1C37BD4680BC704700BFDF
:105540007404002060040020540400205003002054
:105550004C0300201400002080B584B000AF7860B8
:1055600039607B68002B0AD14FF0500383F3118818
:10557000BFF36F8FBFF34F8FFB6000BFFEE7074B9A
:105580001B68183319467868FEF750FF0121386808
:1055900000F024FB00BF1037BD4680BD4C03002047
:1055A00080B586B000AFF860B9607A60FB68002B08
:1055B0000AD14FF0500383F31188BFF36F8FBFF30D
:1055C0004F8F7B6100BFFEE7114B1B68002B0AD198
:1055D0004FF0500383F31188BFF36F8FBFF34F8FEA
:1055E0003B6100BFFEE70B4B1B68BA6842F000420C
:1055F0009A61084B1B6818331946F868FEF7F3FEEA
:105600000121786800F0EAFA00BF1837BD4680BD76
:10561000740400204C03002080B586B000AF786091
:105620007B68DB68DB683B613B69002B0AD14FF08C
:10563000500383F31188BFF36F8FBFF34F8FFB606D
:1056400000BFFEE73B6918331846FEF727FF1D4BE6
:105650001B68002B1CD13B6904331846FEF71EFF64
:105660003B69DB6A01229A40174B1B681343164AB9
:1056700013603B69DA6A13469B0013449B00134A8C
:105680001A443B69043319461046FEF7ACFE05E0A8
:105690003B69183319460E48FEF7A5FE3B69DA6AE6
:1056A0000C4B1B68DB6A9A4205D901237B610A4BCC
:1056B00001221A6001E000237B617B6918461837DC
:1056C000BD4680BD74040020540400205003002017
:1056D0000C0400204C0300206004002080B586B03C
:1056E00000AF78603960294B1B68002B0AD14FF05E
:1056F000500383F31188BFF36F8FBFF34F8F3B616C
:1057000000BFFEE73B6843F000427B681A607B689D
:10571000DB687B617B69002B0AD14FF0500383F378
:105720001188BFF36F8FBFF34F8FFB6000BFFEE7A1
:105730007868FEF7B3FE7B6904331846FEF7AEFEC9
:105740007B69DB6A01229A40114B1B681343104AA4
:1057500013607B69DA6A13469B0013449B000D4A71
:105760001A447B69043319461046FEF73CFE7B69F8
:10577000DA6A094B1B68DB6A9A4202D9074B01229D
:105780001A6000BF1837BD4680BD00BF74040020FA
:1057900054040020500300204C030020600400202B
:1057A00080B483B000AF7860064B1A687B681A60DB
:1057B000054B1A687B685A6000BF0C37BD4680BC39
:1057C000704700BF640400205004002080B588B0FA
:1057D00000AF786039607B68002B0AD14FF050032E
:1057E00083F31188BFF36F8FBFF34F8F3B6100BF0F
:1057F000FEE73B68002B0AD14FF0500383F311887A
:10580000BFF36F8FBFF34F8FFB6000BFFEE700F069
:105810003DFB1D4B1B68BB617B685B68BA69D31A93
:105820007B613B681B68B3F1FF3F02D10023FB6142
:1058300023E07B681A68154B1B689A4207D07B6887
:105840005B68BA699A4202D30123FB6115E03B68A9
:105850001B687A699A420BD23B681A687B69D21A34
:105860003B681A607868FFF79BFF0023FB6104E048
:105870003B6800221A600123FB6100F037FBFB69E3
:1058800018462037BD4680BD500400206404002027
:1058900080B400AF034B01221A6000BFBD4680BC3C
:1058A000704700BF6004002080B582B000AF786010
:1058B00000F052F8064B1B68012BF9D9054B4FF04D
:1058C00080521A60BFF34F8FBFF36F8FF0E700BFB6
:1058D0005003002004ED00E080B582B000AF00234B
:1058E0007B600CE07A6813469B0013449B00124ACD
:1058F00013441846FEF74CFD7B6801337B607B68E0
:10590000062BEFD90D48FEF743FD0D48FEF740FD8D
:105910000C48FEF73DFD0C48FEF73AFD0B48FEF73C
:1059200037FD0B4B054A1A600A4B054A1A6000BF47
:105930000837BD4680BD00BF50030020DC030020B7
:10594000F00300200C040020200400203804002074
:10595000040400200804002080B582B000AF19E0E4
:1059600000F094FA104BDB68DB687B607B680433E3
:105970001846FEF793FD0D4B1B68013B0B4A136065
:105980000B4B1B68013B0A4A136000F0AFFA7868C2
:1059900000F010F8064B1B68002BE1D100BF00BFE0
:1059A0000837BD4680BD00BF200400204C04002005
:1059B0003404002080B584B000AF78607B684C333D
:1059C000184603F051FE7B6893F8B130002B08D1E4
:1059D0007B681B6B184600F0DFFB786800F0DCFB8F
:1059E00018E07B6893F8B130012B03D1786800F0A0
:1059F000D3FB0FE07B6893F8B130022B0AD04FF055
:105A0000500383F31188BFF36F8FBFF34F8FFB6099
:105A100000BFFEE700BF1037BD4680BD80B483B035
:105A200000AF0E4B1B681B68002B01D1012300E067
:105A30000023002B04D00A4B4FF0FF321A6008E01D
:105A4000064B1B68DB68DB687B607B685B68044A2D
:105A5000136000BF0C37BD4680BC704704040020B3
:105A60006C04002080B483B000AF0B4B1B68002B8C
:105A700002D101237B6008E0084B1B68002B02D198
:105A800002237B6001E000237B607B6818460C37B3
:105A9000BD4680BC704700BF58040020740400203D
:105AA00080B586B000AF78607B683B6100237B6186
:105AB0007B68002B6ED03A4B1B683A699A420AD039
:105AC0004FF0500383F31188BFF36F8FBFF34F8FF5
:105AD000FB6000BFFEE73B699B6C002B0AD14FF0D7
